{
  "contractName": "CrowdProjectFactory",
  "abi": [
    {
      "constant": false,
      "inputs": [],
      "name": "renounceOwnership",
      "outputs": [],
      "payable": false,
      "stateMutability": "nonpayable",
      "type": "function"
    },
    {
      "constant": true,
      "inputs": [],
      "name": "owner",
      "outputs": [
        {
          "name": "",
          "type": "address"
        }
      ],
      "payable": false,
      "stateMutability": "view",
      "type": "function"
    },
    {
      "constant": true,
      "inputs": [],
      "name": "isOwner",
      "outputs": [
        {
          "name": "",
          "type": "bool"
        }
      ],
      "payable": false,
      "stateMutability": "view",
      "type": "function"
    },
    {
      "constant": true,
      "inputs": [
        {
          "name": "",
          "type": "uint256"
        }
      ],
      "name": "ProjectsRegistry",
      "outputs": [
        {
          "name": "PID",
          "type": "uint256"
        },
        {
          "name": "admin",
          "type": "address"
        },
        {
          "name": "createdOn",
          "type": "uint256"
        },
        {
          "name": "contractAddress",
          "type": "address"
        }
      ],
      "payable": false,
      "stateMutability": "view",
      "type": "function"
    },
    {
      "constant": false,
      "inputs": [
        {
          "name": "newOwner",
          "type": "address"
        }
      ],
      "name": "transferOwnership",
      "outputs": [],
      "payable": false,
      "stateMutability": "nonpayable",
      "type": "function"
    },
    {
      "inputs": [],
      "payable": false,
      "stateMutability": "nonpayable",
      "type": "constructor"
    },
    {
      "payable": true,
      "stateMutability": "payable",
      "type": "fallback"
    },
    {
      "anonymous": false,
      "inputs": [
        {
          "indexed": false,
          "name": "PID",
          "type": "uint256"
        },
        {
          "indexed": false,
          "name": "name",
          "type": "string"
        },
        {
          "indexed": false,
          "name": "admin",
          "type": "address"
        },
        {
          "indexed": false,
          "name": "maxNumContributers",
          "type": "uint256"
        },
        {
          "indexed": false,
          "name": "disciption",
          "type": "string"
        },
        {
          "indexed": false,
          "name": "contractAddress",
          "type": "address"
        }
      ],
      "name": "ProjectCreated",
      "type": "event"
    },
    {
      "anonymous": false,
      "inputs": [
        {
          "indexed": false,
          "name": "donations",
          "type": "uint256"
        }
      ],
      "name": "DonationsWithdrawn",
      "type": "event"
    },
    {
      "anonymous": false,
      "inputs": [
        {
          "indexed": true,
          "name": "previousOwner",
          "type": "address"
        },
        {
          "indexed": true,
          "name": "newOwner",
          "type": "address"
        }
      ],
      "name": "OwnershipTransferred",
      "type": "event"
    },
    {
      "constant": false,
      "inputs": [
        {
          "name": "_name",
          "type": "string"
        },
        {
          "name": "_maxContributers",
          "type": "uint256"
        },
        {
          "name": "_discription",
          "type": "string"
        }
      ],
      "name": "createProject",
      "outputs": [
        {
          "name": "newProject",
          "type": "address"
        }
      ],
      "payable": true,
      "stateMutability": "payable",
      "type": "function"
    },
    {
      "constant": false,
      "inputs": [],
      "name": "withdrawDonations",
      "outputs": [],
      "payable": false,
      "stateMutability": "nonpayable",
      "type": "function"
    },
    {
      "constant": true,
      "inputs": [],
      "name": "getProjectsCount",
      "outputs": [
        {
          "name": "",
          "type": "uint256"
        }
      ],
      "payable": false,
      "stateMutability": "view",
      "type": "function"
    },
    {
      "constant": true,
      "inputs": [],
      "name": "getContractOperationSatus",
      "outputs": [
        {
          "name": "",
          "type": "bool"
        }
      ],
      "payable": false,
      "stateMutability": "view",
      "type": "function"
    },
    {
      "constant": false,
      "inputs": [],
      "name": "shutdown",
      "outputs": [],
      "payable": false,
      "stateMutability": "nonpayable",
      "type": "function"
    }
  ],
  "bytecode": "0x608060405234801561001057600080fd5b5061001f61010260201b60201c565b6000806101000a81548173ffffffffffffffffffffffffffffffffffffffff021916908373ffffffffffffffffffffffffffffffffffffffff1602179055506000809054906101000a900473ffffffffffffffffffffffffffffffffffffffff1673ffffffffffffffffffffffffffffffffffffffff16600073ffffffffffffffffffffffffffffffffffffffff167f8be0079c531659141344cd1fd0a4f28419497f9722a3daafe3b4186f6b6457e060405160405180910390a360006001819055506001600260006101000a81548160ff02191690831515021790555061010a565b600033905090565b6117e3806101196000396000f3fe6080604052600436106200009e5760003560e01c8063ce1b088a1162000061578063ce1b088a14620003ae578063ddc9768e14620003c8578063e4a8f18b14620003fa578063f2fde38b1462000428578063fc0e74d1146200047d576200009e565b8063715018a614620000a3578063759c3dc514620000bd5780638da5cb5b14620002625780638f32d59b14620002bc578063b6b7c3d414620002ee575b600080fd5b348015620000b057600080fd5b50620000bb62000497565b005b6200022060048036036060811015620000d557600080fd5b8101908080359060200190640100000000811115620000f357600080fd5b8201836020820111156200010657600080fd5b803590602001918460018302840111640100000000831117156200012957600080fd5b91908080601f016020809104026020016040519081016040528093929190818152602001838380828437600081840152601f19601f82011690508083019250505050505050919291929080359060200190929190803590602001906401000000008111156200019757600080fd5b820183602082011115620001aa57600080fd5b80359060200191846001830284011164010000000083111715620001cd57600080fd5b91908080601f016020809104026020016040519081016040528093929190818152602001838380828437600081840152601f19601f820116905080830192505050505050509192919290505050620005d3565b604051808273ffffffffffffffffffffffffffffffffffffffff1673ffffffffffffffffffffffffffffffffffffffff16815260200191505060405180910390f35b3480156200026f57600080fd5b506200027a62000a5a565b604051808273ffffffffffffffffffffffffffffffffffffffff1673ffffffffffffffffffffffffffffffffffffffff16815260200191505060405180910390f35b348015620002c957600080fd5b50620002d462000a83565b604051808215151515815260200191505060405180910390f35b348015620002fb57600080fd5b506200032b600480360360208110156200031457600080fd5b810190808035906020019092919050505062000ae3565b604051808581526020018473ffffffffffffffffffffffffffffffffffffffff1673ffffffffffffffffffffffffffffffffffffffff1681526020018381526020018273ffffffffffffffffffffffffffffffffffffffff1673ffffffffffffffffffffffffffffffffffffffff16815260200194505050505060405180910390f35b348015620003bb57600080fd5b50620003c662000b53565b005b348015620003d557600080fd5b50620003e062000cfc565b604051808215151515815260200191505060405180910390f35b3480156200040757600080fd5b506200041262000d13565b6040518082815260200191505060405180910390f35b3480156200043557600080fd5b506200047b600480360360208110156200044e57600080fd5b81019080803573ffffffffffffffffffffffffffffffffffffffff16906020019092919050505062000d1d565b005b3480156200048a57600080fd5b506200049562000da8565b005b620004a162000a83565b62000514576040517f08c379a00000000000000000000000000000000000000000000000000000000081526004018080602001828103825260208152602001807f4f776e61626c653a2063616c6c6572206973206e6f7420746865206f776e657281525060200191505060405180910390fd5b600073ffffffffffffffffffffffffffffffffffffffff166000809054906101000a900473ffffffffffffffffffffffffffffffffffffffff1673ffffffffffffffffffffffffffffffffffffffff167f8be0079c531659141344cd1fd0a4f28419497f9722a3daafe3b4186f6b6457e060405160405180910390a360008060006101000a81548173ffffffffffffffffffffffffffffffffffffffff021916908373ffffffffffffffffffffffffffffffffffffffff160217905550565b600060011515600260009054906101000a900460ff1615151462000643576040517f08c379a000000000000000000000000000000000000000000000000000000000815260040180806020018281038252602c8152602001806200178c602c913960400191505060405180910390fd5b60018310156200065257600080fd5b600180600082825401925050819055506001543385428686604051620006789062000f9f565b808781526020018673ffffffffffffffffffffffffffffffffffffffff1673ffffffffffffffffffffffffffffffffffffffff1681526020018060200185815260200184815260200180602001838103835287818151815260200191508051906020019080838360005b83811015620006ff578082015181840152602081019050620006e2565b50505050905090810190601f1680156200072d5780820380516001836020036101000a031916815260200191505b50838103825284818151815260200191508051906020019080838360005b83811015620007685780820151818401526020810190506200074b565b50505050905090810190601f168015620007965780820380516001836020036101000a031916815260200191505b5098505050505050505050604051809103906000f080158015620007be573d6000803e3d6000fd5b509050604051806080016040528060015481526020013373ffffffffffffffffffffffffffffffffffffffff1681526020014281526020018273ffffffffffffffffffffffffffffffffffffffff168152506003600060015481526020019081526020016000206000820151816000015560208201518160010160006101000a81548173ffffffffffffffffffffffffffffffffffffffff021916908373ffffffffffffffffffffffffffffffffffffffff1602179055506040820151816002015560608201518160030160006101000a81548173ffffffffffffffffffffffffffffffffffffffff021916908373ffffffffffffffffffffffffffffffffffffffff1602179055509050507fbf427482613e27e5566354e59a495bcd900ad88024e10be1c88084d17721eba8600154853386868660405180878152602001806020018673ffffffffffffffffffffffffffffffffffffffff1673ffffffffffffffffffffffffffffffffffffffff168152602001858152602001806020018473ffffffffffffffffffffffffffffffffffffffff1673ffffffffffffffffffffffffffffffffffffffff168152602001838103835288818151815260200191508051906020019080838360005b83811015620009a95780820151818401526020810190506200098c565b50505050905090810190601f168015620009d75780820380516001836020036101000a031916815260200191505b50838103825285818151815260200191508051906020019080838360005b8381101562000a12578082015181840152602081019050620009f5565b50505050905090810190601f16801562000a405780820380516001836020036101000a031916815260200191505b509850505050505050505060405180910390a19392505050565b60008060009054906101000a900473ffffffffffffffffffffffffffffffffffffffff16905090565b60008060009054906101000a900473ffffffffffffffffffffffffffffffffffffffff1673ffffffffffffffffffffffffffffffffffffffff1662000ac762000e51565b73ffffffffffffffffffffffffffffffffffffffff1614905090565b60036020528060005260406000206000915090508060000154908060010160009054906101000a900473ffffffffffffffffffffffffffffffffffffffff16908060020154908060030160009054906101000a900473ffffffffffffffffffffffffffffffffffffffff16905084565b62000b5d62000a83565b62000bd0576040517f08c379a00000000000000000000000000000000000000000000000000000000081526004018080602001828103825260208152602001807f4f776e61626c653a2063616c6c6572206973206e6f7420746865206f776e657281525060200191505060405180910390fd5b60003073ffffffffffffffffffffffffffffffffffffffff16311162000c5e576040517f08c379a00000000000000000000000000000000000000000000000000000000081526004018080602001828103825260188152602001807f4e6f20646f6e6174696f6e7320746f207769746864726177000000000000000081525060200191505060405180910390fd5b60003073ffffffffffffffffffffffffffffffffffffffff163190503373ffffffffffffffffffffffffffffffffffffffff166108fc829081150290604051600060405180830381858888f1935050505015801562000cc1573d6000803e3d6000fd5b507f493bd3b494eae7075c1a33fc0db02aacfb1d99fbc8a463eb9c94726cb147efee816040518082815260200191505060405180910390a150565b6000600260009054906101000a900460ff16905090565b6000600154905090565b62000d2762000a83565b62000d9a576040517f08c379a00000000000000000000000000000000000000000000000000000000081526004018080602001828103825260208152602001807f4f776e61626c653a2063616c6c6572206973206e6f7420746865206f776e657281525060200191505060405180910390fd5b62000da58162000e59565b50565b62000db262000a83565b62000e25576040517f08c379a00000000000000000000000000000000000000000000000000000000081526004018080602001828103825260208152602001807f4f776e61626c653a2063616c6c6572206973206e6f7420746865206f776e657281525060200191505060405180910390fd5b600260009054906101000a900460ff1615600260006101000a81548160ff021916908315150217905550565b600033905090565b600073ffffffffffffffffffffffffffffffffffffffff168173ffffffffffffffffffffffffffffffffffffffff16141562000ee1576040517f08c379a0000000000000000000000000000000000000000000000000000000008152600401808060200182810382526026815260200180620017666026913960400191505060405180910390fd5b8073ffffffffffffffffffffffffffffffffffffffff166000809054906101000a900473ffffffffffffffffffffffffffffffffffffffff1673ffffffffffffffffffffffffffffffffffffffff167f8be0079c531659141344cd1fd0a4f28419497f9722a3daafe3b4186f6b6457e060405160405180910390a3806000806101000a81548173ffffffffffffffffffffffffffffffffffffffff021916908373ffffffffffffffffffffffffffffffffffffffff16021790555050565b6107b88062000fae8339019056fe608060405234801561001057600080fd5b506040516107b83803806107b8833981018060405261003291908101906102e2565b85600080018190555084600060010160006101000a81548173ffffffffffffffffffffffffffffffffffffffff021916908373ffffffffffffffffffffffffffffffffffffffff16021790555083600060030190805190602001906100989291906101bf565b5080600060020190805190602001906100b29291906101bf565b5081600060040181905550600160006005018190555060405180604001604052803373ffffffffffffffffffffffffffffffffffffffff168152602001600160038111156100fc57fe5b815250600060060160003373ffffffffffffffffffffffffffffffffffffffff1673ffffffffffffffffffffffffffffffffffffffff16815260200190815260200160002060008201518160000160006101000a81548173ffffffffffffffffffffffffffffffffffffffff021916908373ffffffffffffffffffffffffffffffffffffffff16021790555060208201518160000160146101000a81548160ff021916908360038111156101ac57fe5b0217905550905050505050505050610491565b828054600181600116156101000203166002900490600052602060002090601f016020900481019282601f1061020057805160ff191683800117855561022e565b8280016001018555821561022e579182015b8281111561022d578251825591602001919060010190610212565b5b50905061023b919061023f565b5090565b61026191905b8082111561025d576000816000905550600101610245565b5090565b90565b60008151905061027381610463565b92915050565b600082601f83011261028a57600080fd5b815161029d610298826103c8565b61039b565b915080825260208301602083018583830111156102b957600080fd5b6102c4838284610430565b50505092915050565b6000815190506102dc8161047a565b92915050565b60008060008060008060c087890312156102fb57600080fd5b600061030989828a016102cd565b965050602061031a89828a01610264565b955050604087015167ffffffffffffffff81111561033757600080fd5b61034389828a01610279565b945050606061035489828a016102cd565b935050608061036589828a016102cd565b92505060a087015167ffffffffffffffff81111561038257600080fd5b61038e89828a01610279565b9150509295509295509295565b6000604051905081810181811067ffffffffffffffff821117156103be57600080fd5b8060405250919050565b600067ffffffffffffffff8211156103df57600080fd5b601f19601f8301169050602081019050919050565b60006103ff82610406565b9050919050565b600073ffffffffffffffffffffffffffffffffffffffff82169050919050565b6000819050919050565b60005b8381101561044e578082015181840152602081019050610433565b8381111561045d576000848401525b50505050565b61046c816103f4565b811461047757600080fd5b50565b61048381610426565b811461048e57600080fd5b50565b610318806104a06000396000f3fe6080604052600436106100345760003560e01c80636e9960c3146100395780638788862514610064578063d63dc6611461008d575b600080fd5b34801561004557600080fd5b5061004e610097565b60405161005b9190610281565b60405180910390f35b34801561007057600080fd5b5061008b60048036036100869190810190610249565b6100c3565b005b6100956101c7565b005b60008060010160009054906101000a900473ffffffffffffffffffffffffffffffffffffffff16905090565b600060050154600060040154116100d957600080fd5b60405180604001604052803373ffffffffffffffffffffffffffffffffffffffff16815260200182600381111561010c57fe5b815250600060060160003373ffffffffffffffffffffffffffffffffffffffff1673ffffffffffffffffffffffffffffffffffffffff16815260200190815260200160002060008201518160000160006101000a81548173ffffffffffffffffffffffffffffffffffffffff021916908373ffffffffffffffffffffffffffffffffffffffff16021790555060208201518160000160146101000a81548160ff021916908360038111156101bc57fe5b021790555090505050565b343373ffffffffffffffffffffffffffffffffffffffff163110156101eb57600080fd5b3073ffffffffffffffffffffffffffffffffffffffff166108fc349081150290604051600060405180830381858888f19350505050158015610231573d6000803e3d6000fd5b50565b600081359050610243816102ce565b92915050565b60006020828403121561025b57600080fd5b600061026984828501610234565b91505092915050565b61027b8161029c565b82525050565b60006020820190506102966000830184610272565b92915050565b60006102a7826102ae565b9050919050565b600073ffffffffffffffffffffffffffffffffffffffff82169050919050565b600481106102db57600080fd5b5056fea265627a7a723058207d1d9ad9a9e0711a45d06cfc4a851e41bdf1ea62fcd10c5627acff9f6953c1076c6578706572696d656e74616cf500374f776e61626c653a206e6577206f776e657220697320746865207a65726f20616464726573735468697320636f6e747261637420686173206265656e2073746f7070656420627920746865206f776e65722ea165627a7a72305820f9a005315df473a5d0dd109ed0d4b4853ca9a78249fde56759f2c10dbce259f50029",
  "source": "pragma solidity >=0.5.0 <0.6.0;\n/// @title A simulator for crowd sourcing and funding project factory\n/// @author Fatin Alkinani\n/// @notice You can use this contract for only the most basic simulation\n/// @dev All function calls are currently implemented without side effects\nimport './CrowdProject.sol';\nimport '../node_modules/@openzeppelin/contracts/math/SafeMath.sol';\nimport '../node_modules/@openzeppelin/contracts/ownership/Ownable.sol';\n\ncontract CrowdProjectFactory is Ownable {\n\n    using SafeMath for uint256;\n\n/// State Variables\n////_________________\n//// A state variable of for creating an indexed of the new created project\n    uint256 private indexProject;\n////A state variable to define the status of the contract: opetrated or not\n     bool private operational;\n//////Srtuctures\n/////___________\n\n/// A structure is used to define the project basic info that could be retrieved publicly\n    struct ProjectBirthCertificate {\n      uint256 PID;\n      address admin;\n      uint256 createdOn;\n      CrowdProject contractAddress;\n    }\n    ///Lockups\n    ///_______\n    //// A mapping pointer to let each project id refer to the ProjectBirthCertificate\n    mapping (uint256 => ProjectBirthCertificate) public ProjectsRegistry;\n\n///Events\n///___________\n/** @notice This  event triggered when new project created\n\n  */\n    event ProjectCreated(uint256 PID, string name, address admin,uint maxNumContributers,string disciption, CrowdProject contractAddress);\n\n/// an events will trigger when a donation of this contract withdrawn by the owner\n    event DonationsWithdrawn(uint256 donations);\n\n///Modifiers\n///__________\n/////isOperational is for checking the oprational state of this contract\n    modifier isOperational() {\n        require(operational == true, \"This contract has been stopped by the owner.\");\n        _;\n    }\n\n///functions\n///_____________\n    /** @notice This constructor for initializing state variables of this contract\n\n      */\n    constructor ()\n    public\n    {\n      indexProject=0;\n      operational=true;\n    }\n    /** @notice Create Project\n      * @dev Used for creating an independednt contract address for each project.\n      * @param _name : .A project name.\n      * @param _maxContributers s: .A max number of project required members.\n      * @param _discription : A project describtion.\n      */\n\n    function createProject(string memory _name,  uint _maxContributers, string memory _discription )\n        public\n        payable\n        isOperational() //isMember\n       returns (CrowdProject newProject)\n      {\n        require (_maxContributers>=1);\n        indexProject +=1;\n        newProject = new CrowdProject( indexProject,msg.sender, _name, block.timestamp, _maxContributers, _discription);\n        ProjectsRegistry[indexProject] = ProjectBirthCertificate(indexProject, msg.sender, block.timestamp, newProject);\n        emit ProjectCreated(indexProject, _name, msg.sender, _maxContributers,_discription, newProject);\n    }\n    /** @notice This function called by frontend and by only owner of the contract\n      * @dev Transfering all the money of the contract to its owneer.\n\n      */\n\n    function withdrawDonations()\n        public\n        onlyOwner()\n    {\n        require(address(this).balance > 0, \"No donations to withdraw\");\n        uint256 donations = address(this).balance;\n        msg.sender.transfer(donations);\n        emit DonationsWithdrawn(donations);\n    }\n    /** @notice This function called by frontend.\n\n      * @return the number of the registered projects.\n      */\n    function getProjectsCount() view\n    public\n\n    returns (uint)\n    {\n    return (indexProject);\n    }\n    /** @notice This function called by other functions\n      * @dev It used to check the operational status of this contract\n      * @return a flag refered that the operation status of this contract.\n      */\n    function getContractOperationSatus() view\n    public\n\n    returns (bool)\n    {\n    return (operational);\n    }\n    /** @notice This function called by only the owner\n      * @dev It used to stop operations of this contact.\n      */\n    function shutdown()\n        public\n        onlyOwner()\n    {\n        operational = !operational;\n    }\n\n    // Fallback function - Called if other functions don't match call or\n       // sent ether without data\n       // Typically, called when invalid data is sent\n       // Added so ether sent to this contract is reverted if the contract fails\n       // otherwise, the sender's money is transferred to contract\n       function () external payable {\n           revert();\n       }\n\n}\n",
  "sourcePath": "/home/fatin/MyProjects/Solidity/CrowdFun/contracts/CrowdProjectFactory.sol",
  "compiler": {
    "name": "solc",
    "version": "0.5.8+commit.23d335f2.Emscripten.clang"
  },
  "schemaVersion": "3.0.11",
  "updatedAt": "2020-02-02T11:47:05.215Z",
  "devdoc": {
    "methods": {
      "createProject(string,uint256,string)": {
        "details": "Used for creating an independednt contract address for each project.",
        "params": {
          "_discription": ": A project describtion.",
          "_maxContributers": "s: .A max number of project required members.",
          "_name": ": .A project name."
        }
      },
      "getContractOperationSatus()": {
        "details": "It used to check the operational status of this contract",
        "return": "a flag refered that the operation status of this contract."
      },
      "getProjectsCount()": {
        "return": "the number of the registered projects."
      },
      "isOwner()": {
        "details": "Returns true if the caller is the current owner."
      },
      "owner()": {
        "details": "Returns the address of the current owner."
      },
      "renounceOwnership()": {
        "details": "Leaves the contract without owner. It will not be possible to call `onlyOwner` functions anymore. Can only be called by the current owner.     * NOTE: Renouncing ownership will leave the contract without an owner, thereby removing any functionality that is only available to the owner."
      },
      "shutdown()": {
        "details": "It used to stop operations of this contact."
      },
      "transferOwnership(address)": {
        "details": "Transfers ownership of the contract to a new account (`newOwner`). Can only be called by the current owner."
      },
      "withdrawDonations()": {
        "details": "Transfering all the money of the contract to its owneer."
      }
    }
  },
  "userdoc": {
    "methods": {
      "constructor": "This constructor for initializing state variables of this contract",
      "createProject(string,uint256,string)": {
        "notice": "Create Project"
      },
      "getContractOperationSatus()": {
        "notice": "This function called by other functions"
      },
      "getProjectsCount()": {
        "notice": "This function called by frontend."
      },
      "shutdown()": {
        "notice": "This function called by only the owner"
      },
      "withdrawDonations()": {
        "notice": "This function called by frontend and by only owner of the contract"
      }
    }
  }
}