{
  "contractName": "CrowdProject",
  "abi": [
    {
      "inputs": [
        {
          "name": "_PID",
          "type": "uint256"
        },
        {
          "name": "_admin",
          "type": "address"
        },
        {
          "name": "_name",
          "type": "string"
        },
        {
          "name": "_createdOn",
          "type": "uint256"
        },
        {
          "name": "_maxContributers",
          "type": "uint256"
        },
        {
          "name": "_discription",
          "type": "string"
        }
      ],
      "payable": false,
      "stateMutability": "nonpayable",
      "type": "constructor"
    },
    {
      "payable": true,
      "stateMutability": "payable",
      "type": "fallback"
    },
    {
      "constant": true,
      "inputs": [],
      "name": "getAdmin",
      "outputs": [
        {
          "name": "",
          "type": "address"
        }
      ],
      "payable": false,
      "stateMutability": "view",
      "type": "function"
    },
    {
      "constant": false,
      "inputs": [],
      "name": "fundProject",
      "outputs": [],
      "payable": true,
      "stateMutability": "payable",
      "type": "function"
    },
    {
      "constant": false,
      "inputs": [
        {
          "name": "_cont",
          "type": "uint8"
        }
      ],
      "name": "joinProject",
      "outputs": [],
      "payable": false,
      "stateMutability": "nonpayable",
      "type": "function"
    }
  ],
  "bytecode": "0x608060405234801561001057600080fd5b506040516107b83803806107b8833981018060405261003291908101906102e2565b85600080018190555084600060010160006101000a81548173ffffffffffffffffffffffffffffffffffffffff021916908373ffffffffffffffffffffffffffffffffffffffff16021790555083600060030190805190602001906100989291906101bf565b5080600060020190805190602001906100b29291906101bf565b5081600060040181905550600160006005018190555060405180604001604052803373ffffffffffffffffffffffffffffffffffffffff168152602001600160038111156100fc57fe5b815250600060060160003373ffffffffffffffffffffffffffffffffffffffff1673ffffffffffffffffffffffffffffffffffffffff16815260200190815260200160002060008201518160000160006101000a81548173ffffffffffffffffffffffffffffffffffffffff021916908373ffffffffffffffffffffffffffffffffffffffff16021790555060208201518160000160146101000a81548160ff021916908360038111156101ac57fe5b0217905550905050505050505050610491565b828054600181600116156101000203166002900490600052602060002090601f016020900481019282601f1061020057805160ff191683800117855561022e565b8280016001018555821561022e579182015b8281111561022d578251825591602001919060010190610212565b5b50905061023b919061023f565b5090565b61026191905b8082111561025d576000816000905550600101610245565b5090565b90565b60008151905061027381610463565b92915050565b600082601f83011261028a57600080fd5b815161029d610298826103c8565b61039b565b915080825260208301602083018583830111156102b957600080fd5b6102c4838284610430565b50505092915050565b6000815190506102dc8161047a565b92915050565b60008060008060008060c087890312156102fb57600080fd5b600061030989828a016102cd565b965050602061031a89828a01610264565b955050604087015167ffffffffffffffff81111561033757600080fd5b61034389828a01610279565b945050606061035489828a016102cd565b935050608061036589828a016102cd565b92505060a087015167ffffffffffffffff81111561038257600080fd5b61038e89828a01610279565b9150509295509295509295565b6000604051905081810181811067ffffffffffffffff821117156103be57600080fd5b8060405250919050565b600067ffffffffffffffff8211156103df57600080fd5b601f19601f8301169050602081019050919050565b60006103ff82610406565b9050919050565b600073ffffffffffffffffffffffffffffffffffffffff82169050919050565b6000819050919050565b60005b8381101561044e578082015181840152602081019050610433565b8381111561045d576000848401525b50505050565b61046c816103f4565b811461047757600080fd5b50565b61048381610426565b811461048e57600080fd5b50565b610318806104a06000396000f3fe6080604052600436106100345760003560e01c80636e9960c3146100395780638788862514610064578063d63dc6611461008d575b600080fd5b34801561004557600080fd5b5061004e610097565b60405161005b9190610281565b60405180910390f35b34801561007057600080fd5b5061008b60048036036100869190810190610249565b6100c3565b005b6100956101c7565b005b60008060010160009054906101000a900473ffffffffffffffffffffffffffffffffffffffff16905090565b600060050154600060040154116100d957600080fd5b60405180604001604052803373ffffffffffffffffffffffffffffffffffffffff16815260200182600381111561010c57fe5b815250600060060160003373ffffffffffffffffffffffffffffffffffffffff1673ffffffffffffffffffffffffffffffffffffffff16815260200190815260200160002060008201518160000160006101000a81548173ffffffffffffffffffffffffffffffffffffffff021916908373ffffffffffffffffffffffffffffffffffffffff16021790555060208201518160000160146101000a81548160ff021916908360038111156101bc57fe5b021790555090505050565b343373ffffffffffffffffffffffffffffffffffffffff163110156101eb57600080fd5b3073ffffffffffffffffffffffffffffffffffffffff166108fc349081150290604051600060405180830381858888f19350505050158015610231573d6000803e3d6000fd5b50565b600081359050610243816102ce565b92915050565b60006020828403121561025b57600080fd5b600061026984828501610234565b91505092915050565b61027b8161029c565b82525050565b60006020820190506102966000830184610272565b92915050565b60006102a7826102ae565b9050919050565b600073ffffffffffffffffffffffffffffffffffffffff82169050919050565b600481106102db57600080fd5b5056fea265627a7a723058207d1d9ad9a9e0711a45d06cfc4a851e41bdf1ea62fcd10c5627acff9f6953c1076c6578706572696d656e74616cf50037",
  "source": "pragma solidity >=0.5.0 <0.6.0;\n/// @title A simulator for crowd sourcing and funding members and projects\n/// @author Fatin Alkinani\n/// @notice You can use this contract for only the most basic simulation\n/// @dev All function calls are currently implemented without side effects\npragma experimental ABIEncoderV2;\nimport \"./CrowdStructure.sol\";\nimport \"./CrowdMember.sol\";\n\n/** @title Crowd Project: used to create a seperated contract for each crowd member want to register and collect team for it\nin the crowd. It is initialized and deployed by the main contract of CrowdProjectFactory\n  */\n contract CrowdProject\n {\n\n//state variables\nCrowdStructure.Project  prj;\n\n/** @notice This constructor for initializing the project state variable called\n  * @dev Creating a new instance of contract by CrowdProjectFactory contract.\n   All the parameters are given by the CrowdProjectFactory contract.\n  * @param _PID : A project Id, given by the CrowdProjectFactory.\n  * @param _admin : .A project admin address.\n  * @param _name : .A project name.\n  * @param _createdOn : .A project date of creation.\n  * @param _maxContributers : .A max number of project required members.\n  * @param _discription : A project describtion.\n  */\nconstructor(uint _PID,  address _admin, string memory _name, uint256 _createdOn, uint256 _maxContributers, string memory _discription) public\n{\n\n    prj.PID=_PID;\n    prj.admin=_admin;\n    prj.projectName=_name;\n    prj.projectDiscrption=_discription;\n    prj.maxContributers=_maxContributers;\n    prj.noContributers=1;\n    prj.staff[msg.sender]=CrowdStructure.ProjectMember ({adr:msg.sender,cont:CrowdStructure.Contribution.Admin}) ;\n  //  emit LogProject(_admin);\n\n\n}\n// a modifier is used to check if the sender is admin or not\nmodifier isAdmin()\n{\n  require(msg.sender==getAdmin());\n  _;\n}\n/// A modifier to check if the project can accept new members or not.\nmodifier isOpen()\n{\n  require(prj.maxContributers>prj.noContributers);\n  _;\n}\n\n/// This function is a pending work for future steps\nmodifier isCrowdMember()\n{\n  address _adr=msg.sender;\n\n  //require(CrowdMember.getEnrolledAddress[_adr]==true);\n  _;\n}\n\n/** @notice  This functon is planed to be exploited in the next step.\n  * @dev    It is used if the caller is the project admin or not. .\n  *\n  * @return  the address of the admin.\n  */\nfunction getAdmin()\nview\npublic\nreturns(address)\n{\n  return(prj.admin);\n}\n/** @notice  This functon is planed to be exploited in the next step.\n  * @dev    It is used to transfer the funds to the project contract\n  */\n function fundProject() public payable\n {\n   require (msg.sender.balance>= msg.value);\n   address(this).transfer(msg.value);\n\n }\n\n /** @notice  This functon is planed to be exploited in the next step.\n   * @dev     It is used to add new member to the project.\n   * @return  the address of the admin.\n   */\n function joinProject(CrowdStructure.Contribution _cont)\n  public\n  isOpen\n\n {\n     prj.staff[msg.sender]=CrowdStructure.ProjectMember ({adr:msg.sender,cont:_cont}) ;\n\n }\n // Fallback function - Called if other functions don't match call or\n    // sent ether without data\n    // Typically, called when invalid data is sent\n    // Added so ether sent to this contract is reverted if the contract fails\n    // otherwise, the sender's money is transferred to contract\nfunction () external payable {\n        revert();\n    }\n\n}\n",
  "sourcePath": "/home/fatin/MyProjects/Solidity/CrowdFun/contracts/CrowdProject.sol",
  "compiler": {
    "name": "solc",
    "version": "0.5.8+commit.23d335f2.Emscripten.clang"
  },
  "schemaVersion": "3.0.11",
  "updatedAt": "2020-02-02T11:46:37.997Z",
  "devdoc": {
    "methods": {
      "constructor": {
        "details": "Creating a new instance of contract by CrowdProjectFactory contract. All the parameters are given by the CrowdProjectFactory contract.",
        "params": {
          "_PID": ": A project Id, given by the CrowdProjectFactory.",
          "_admin": ": .A project admin address.",
          "_createdOn": ": .A project date of creation.",
          "_discription": ": A project describtion.",
          "_maxContributers": ": .A max number of project required members.",
          "_name": ": .A project name."
        }
      },
      "fundProject()": {
        "details": "It is used to transfer the funds to the project contract"
      },
      "getAdmin()": {
        "details": "It is used if the caller is the project admin or not. .",
        "return": "the address of the admin."
      },
      "joinProject(uint8)": {
        "details": "It is used to add new member to the project.",
        "return": "the address of the admin."
      }
    },
    "title": "Crowd Project: used to create a seperated contract for each crowd member want to register and collect team for it in the crowd. It is initialized and deployed by the main contract of CrowdProjectFactory"
  },
  "userdoc": {
    "methods": {
      "constructor": "This constructor for initializing the project state variable called",
      "fundProject()": {
        "notice": "This functon is planed to be exploited in the next step."
      },
      "getAdmin()": {
        "notice": "This functon is planed to be exploited in the next step."
      },
      "joinProject(uint8)": {
        "notice": "This functon is planed to be exploited in the next step."
      }
    }
  }
}