{
  "contractName": "CrowdMember",
  "abi": [
    {
      "inputs": [],
      "payable": false,
      "stateMutability": "nonpayable",
      "type": "constructor"
    },
    {
      "payable": true,
      "stateMutability": "payable",
      "type": "fallback"
    },
    {
      "anonymous": false,
      "inputs": [
        {
          "indexed": true,
          "name": "accountAddress",
          "type": "address"
        }
      ],
      "name": "LogEnrolled",
      "type": "event"
    },
    {
      "constant": false,
      "inputs": [
        {
          "name": "_firstNameMember",
          "type": "string"
        },
        {
          "name": "_lastNameMember",
          "type": "string"
        },
        {
          "name": "_emailMember",
          "type": "string"
        }
      ],
      "name": "storeMemebr",
      "outputs": [
        {
          "name": "",
          "type": "bool"
        }
      ],
      "payable": false,
      "stateMutability": "nonpayable",
      "type": "function"
    },
    {
      "constant": true,
      "inputs": [],
      "name": "getMember",
      "outputs": [
        {
          "components": [
            {
              "name": "firstName",
              "type": "string"
            },
            {
              "name": "lastName",
              "type": "string"
            },
            {
              "name": "email",
              "type": "string"
            }
          ],
          "name": "",
          "type": "tuple"
        }
      ],
      "payable": false,
      "stateMutability": "view",
      "type": "function"
    },
    {
      "constant": true,
      "inputs": [],
      "name": "getMemeberCount",
      "outputs": [
        {
          "name": "tempCount",
          "type": "uint256"
        }
      ],
      "payable": false,
      "stateMutability": "view",
      "type": "function"
    },
    {
      "constant": false,
      "inputs": [
        {
          "name": "_discription",
          "type": "string"
        },
        {
          "name": "_name",
          "type": "string"
        }
      ],
      "name": "createProject",
      "outputs": [
        {
          "name": "",
          "type": "uint256"
        }
      ],
      "payable": false,
      "stateMutability": "nonpayable",
      "type": "function"
    },
    {
      "constant": true,
      "inputs": [],
      "name": "retrievNoProject",
      "outputs": [
        {
          "name": "",
          "type": "uint256"
        }
      ],
      "payable": false,
      "stateMutability": "view",
      "type": "function"
    }
  ],
  "bytecode": "0x608060405234801561001057600080fd5b5060006005819055506000600481905550611061806100306000396000f3fe60806040526004361061004a5760003560e01c80630274c0941461004f578063276a916a1461007a5780634ef93bac146100a55780636aea6001146100d05780636bd062041461010d575b600080fd5b34801561005b57600080fd5b5061006461014a565b6040516100719190610f0c565b60405180910390f35b34801561008657600080fd5b5061008f610386565b60405161009c9190610f2e565b60405180910390f35b3480156100b157600080fd5b506100ba610449565b6040516100c79190610f2e565b60405180910390f35b3480156100dc57600080fd5b506100f760048036036100f29190810190610da5565b610456565b6040516101049190610ef1565b60405180910390f35b34801561011957600080fd5b50610134600480360361012f9190810190610d39565b61066f565b6040516101419190610f2e565b60405180910390f35b610152610bf2565b6000803373ffffffffffffffffffffffffffffffffffffffff1673ffffffffffffffffffffffffffffffffffffffff168152602001908152602001600020604051806060016040529081600082018054600181600116156101000203166002900480601f0160208091040260200160405190810160405280929190818152602001828054600181600116156101000203166002900480156102345780601f1061020957610100808354040283529160200191610234565b820191906000526020600020905b81548152906001019060200180831161021757829003601f168201915b50505050508152602001600182018054600181600116156101000203166002900480601f0160208091040260200160405190810160405280929190818152602001828054600181600116156101000203166002900480156102d65780601f106102ab576101008083540402835291602001916102d6565b820191906000526020600020905b8154815290600101906020018083116102b957829003601f168201915b50505050508152602001600282018054600181600116156101000203166002900480601f0160208091040260200160405190810160405280929190818152602001828054600181600116156101000203166002900480156103785780601f1061034d57610100808354040283529160200191610378565b820191906000526020600020905b81548152906001019060200180831161035b57829003601f168201915b505050505081525050905090565b600080600160003373ffffffffffffffffffffffffffffffffffffffff1673ffffffffffffffffffffffffffffffffffffffff16815260200190815260200160002060009054906101000a900460ff1615610442576103e3610c13565b600360003373ffffffffffffffffffffffffffffffffffffffff1673ffffffffffffffffffffffffffffffffffffffff168152602001908152602001600020604051806020016040529081600082015481525050905080600001519150505b8091505090565b6000600454905080905090565b6000801515600160003373ffffffffffffffffffffffffffffffffffffffff1673ffffffffffffffffffffffffffffffffffffffff16815260200190815260200160002060009054906101000a900460ff1615151415610619576104b8610bf2565b848160000181905250838160200181905250828160400181905250806000803373ffffffffffffffffffffffffffffffffffffffff1673ffffffffffffffffffffffffffffffffffffffff168152602001908152602001600020600082015181600001908051906020019061052e929190610c26565b50602082015181600101908051906020019061054b929190610c26565b506040820151816002019080519060200190610568929190610c26565b5090505060018060003373ffffffffffffffffffffffffffffffffffffffff1673ffffffffffffffffffffffffffffffffffffffff16815260200190815260200160002060006101000a81548160ff02191690831515021790555060016004600082825401925050819055503373ffffffffffffffffffffffffffffffffffffffff167f990c442e6adb818b8fa7db3cf1023decd07f7b66e5306928c7ed527d974192bb60405160405180910390a2505b600160003373ffffffffffffffffffffffffffffffffffffffff1673ffffffffffffffffffffffffffffffffffffffff16815260200190815260200160002060009054906101000a900460ff1690509392505050565b60008060011515600160003373ffffffffffffffffffffffffffffffffffffffff1673ffffffffffffffffffffffffffffffffffffffff16815260200190815260200160002060009054906101000a900460ff1615151415610be8576106d3610bf2565b6000803373ffffffffffffffffffffffffffffffffffffffff1673ffffffffffffffffffffffffffffffffffffffff168152602001908152602001600020604051806060016040529081600082018054600181600116156101000203166002900480601f0160208091040260200160405190810160405280929190818152602001828054600181600116156101000203166002900480156107b55780601f1061078a576101008083540402835291602001916107b5565b820191906000526020600020905b81548152906001019060200180831161079857829003601f168201915b50505050508152602001600182018054600181600116156101000203166002900480601f0160208091040260200160405190810160405280929190818152602001828054600181600116156101000203166002900480156108575780601f1061082c57610100808354040283529160200191610857565b820191906000526020600020905b81548152906001019060200180831161083a57829003601f168201915b50505050508152602001600282018054600181600116156101000203166002900480601f0160208091040260200160405190810160405280929190818152602001828054600181600116156101000203166002900480156108f95780601f106108ce576101008083540402835291602001916108f9565b820191906000526020600020905b8154815290600101906020018083116108dc57829003601f168201915b505050505081525050905061090c610ca6565b8481602001819052508581600001819052506001600560008282540192505081905550806002600060055481526020019081526020016000206000820151816000019080519060200190610961929190610c26565b50602082015181600101908051906020019061097e929190610c26565b5090505060405180606001604052803373ffffffffffffffffffffffffffffffffffffffff168152602001838152602001600060038111156109bc57fe5b81525060026000600554815260200190815260200160002060020160003373ffffffffffffffffffffffffffffffffffffffff1673ffffffffffffffffffffffffffffffffffffffff16815260200190815260200160002060008201518160000160006101000a81548173ffffffffffffffffffffffffffffffffffffffff021916908373ffffffffffffffffffffffffffffffffffffffff1602179055506020820151816001016000820151816000019080519060200190610a80929190610c26565b506020820151816001019080519060200190610a9d929190610c26565b506040820151816002019080519060200190610aba929190610c26565b50505060408201518160040160006101000a81548160ff02191690836003811115610ae157fe5b0217905550905050600360003373ffffffffffffffffffffffffffffffffffffffff1673ffffffffffffffffffffffffffffffffffffffff1681526020019081526020016000206000016000815480929190600101919050555060006001600360003373ffffffffffffffffffffffffffffffffffffffff1673ffffffffffffffffffffffffffffffffffffffff16815260200190815260200160002060000154019050600554600360003373ffffffffffffffffffffffffffffffffffffffff1673ffffffffffffffffffffffffffffffffffffffff16815260200190815260200160002060010160008381526020019081526020016000208190555060055493505050505b8091505092915050565b60405180606001604052806060815260200160608152602001606081525090565b6040518060200160405280600081525090565b828054600181600116156101000203166002900490600052602060002090601f016020900481019282601f10610c6757805160ff1916838001178555610c95565b82800160010185558215610c95579182015b82811115610c94578251825591602001919060010190610c79565b5b509050610ca29190610cc0565b5090565b604051806040016040528060608152602001606081525090565b610ce291905b80821115610cde576000816000905550600101610cc6565b5090565b90565b600082601f830112610cf657600080fd5b8135610d09610d0482610f76565b610f49565b91508082526020830160208301858383011115610d2557600080fd5b610d30838284610fd4565b50505092915050565b60008060408385031215610d4c57600080fd5b600083013567ffffffffffffffff811115610d6657600080fd5b610d7285828601610ce5565b925050602083013567ffffffffffffffff811115610d8f57600080fd5b610d9b85828601610ce5565b9150509250929050565b600080600060608486031215610dba57600080fd5b600084013567ffffffffffffffff811115610dd457600080fd5b610de086828701610ce5565b935050602084013567ffffffffffffffff811115610dfd57600080fd5b610e0986828701610ce5565b925050604084013567ffffffffffffffff811115610e2657600080fd5b610e3286828701610ce5565b9150509250925092565b610e4581610fbe565b82525050565b6000610e5682610fa2565b610e608185610fad565b9350610e70818560208601610fe3565b610e7981611016565b840191505092915050565b60006060830160008301518482036000860152610ea18282610e4b565b91505060208301518482036020860152610ebb8282610e4b565b91505060408301518482036040860152610ed58282610e4b565b9150508091505092915050565b610eeb81610fca565b82525050565b6000602082019050610f066000830184610e3c565b92915050565b60006020820190508181036000830152610f268184610e84565b905092915050565b6000602082019050610f436000830184610ee2565b92915050565b6000604051905081810181811067ffffffffffffffff82111715610f6c57600080fd5b8060405250919050565b600067ffffffffffffffff821115610f8d57600080fd5b601f19601f8301169050602081019050919050565b600081519050919050565b600082825260208201905092915050565b60008115159050919050565b6000819050919050565b82818337600083830152505050565b60005b83811015611001578082015181840152602081019050610fe6565b83811115611010576000848401525b50505050565b6000601f19601f830116905091905056fea265627a7a72305820efaa0ffb766e48169770c6340c3e62d883b745750774e70d168a0eb982a356e56c6578706572696d656e74616cf50037",
  "source": "pragma solidity >=0.5.0 <0.6.0;\n/// @title A simulator for crowd sourcing and funding members and projects\n/// @author Fatin Alki\n/// @notice You can use this contract for only the most basic simulation\n/// @dev All function calls are currently implemented without side effects\npragma experimental ABIEncoderV2;\nimport \"./CrowdStructure.sol\";\nimport \"./Project.sol\";\n/** @title Crowd Member  */\n contract CrowdMember\n {\n\n\n//State variables\n\n// mapping address to CrowdMember\nmapping (address=>CrowdStructure.MemberData) private members;\n//Marking members as enrolled after success registeration\nmapping (address=>bool) private enrolledMembers;\nmapping (uint=>CrowdStructure.Project)private projects ;\nmapping (address=>CrowdStructure.OwnerProjects) private ownerToProjects;\n//setting a counter of al members\nuint  membersCount ;\n//bytes32 public txID ;\nuint   indexProjects;\n\n\n////*events*///\nevent LogEnrolled(address indexed accountAddress);\n//Constructor used to intialize state variable\nconstructor() public\n  {\n    indexProjects=0;\n    membersCount=0;\n\n  }\n\n  /** @notice This function called by frontend to pass the parameters and register new memebr\n    * @dev Storing  member data in enrolled and members .\n    * @param _firstNameMember First Name of the member.\n    * @param _lastNameMember Last name of the member .\n    * @return s The calculated surface.\n    */\n\nfunction storeMemebr(string memory _firstNameMember,string memory _lastNameMember, string memory _emailMember) public returns(bool)\n{\n\nif(enrolledMembers[msg.sender]==false)\n{\n  CrowdStructure.MemberData memory _member;\n  _member.firstName=_firstNameMember;\n  _member.lastName= _lastNameMember;\n  //member.skills=_skillsMember ;\n  _member.email=_emailMember;\n  //member.phonNo= _phonNoMember;\n  //member.nationality=_nationalityMember;\n  members[msg.sender]=_member;\n  enrolledMembers[msg.sender]=true;\n  membersCount+=1;\n  emit LogEnrolled(msg.sender);\n}\nreturn enrolledMembers[msg.sender];\n\n//  txID=keccak256(abi.encodePacked(index2,msg.sender));\n\n}\n/** @notice This function called by  user interface to get info of specific member\n  * @dev Retrieving  member data in enrolled and members lookups.\n\n  * @return Data of msg.sender .\n  */\n\n\n function  getMember()  public view returns  (CrowdStructure.MemberData memory)\n {\n\n   return (members[msg.sender]);\n\n }\n /** @notice This function called by  user interface to get info of specific member\n   * @return tempCount The counted members of the contracts .\n   */\n\n function getMemeberCount() public view returns (uint tempCount)\n {\n    tempCount=membersCount;\n    return tempCount;\n }\n /** @notice This function called by  user interface to create a project  of specific member\n   * @dev Storing  project data in projects lookup.\n   * @dev Storing  project ID in ownerToProjects lookup.\n   * @param _discription The disciption of the project.\n   *@param _name The name of the project\n   * @return prjID The created project ID .\n   */\n\n\n function createProject(string memory _discription, string memory _name) public returns (uint )\n {\n   uint prjID;\n\n   if (enrolledMembers[msg.sender]==true)\n   {\n     CrowdStructure.MemberData memory _data= members[msg.sender];\n     CrowdStructure.Project memory _prj;\n     _prj.projectName=_name;\n     _prj.projectDiscrption=_discription;\n     //CrowdProject prj= (new CrowdProject());\n     indexProjects+=1;\n     projects[indexProjects]=_prj;\n     projects[indexProjects].staff[msg.sender]= CrowdStructure.ProjectMember ({adr:msg.sender,data:_data,cont:CrowdStructure.Contribution.Owner}) ;\n     ownerToProjects[msg.sender].count ++;\n     uint index = ownerToProjects[msg.sender].count+1;\n     ownerToProjects[msg.sender].idToProject[index]=indexProjects;\n     prjID=indexProjects;\n\n     //txID=keccak256(abi.encodePacked(index2,msg.sender));\n }\n return prjID;\n }\n\n /** @notice This function called by  user interface to count the no of the projects of a specific member.\n\n   * @return  _count No of the created projects of the sender .\n   */\n\n function retrievNoProject() public view returns (uint )\n {\n   uint _count;\n     if (enrolledMembers[msg.sender])\n       {\n          CrowdStructure.OwnerProjects memory _temp =ownerToProjects[msg.sender];\n         _count= _temp.count;\n        }\n        return _count;\n }\n\n // Fallback function - Called if other functions don't match call or\n    // sent ether without data\n    // Typically, called when invalid data is sent\n    // Added so ether sent to this contract is reverted if the contract fails\n    // otherwise, the sender's money is transferred to contract\n    function () external payable {\n        revert();\n    }\n\n}\n",
  "sourcePath": "/home/fatin/MyProjects/Solidity/CrowdFun/contracts/CrowdMember.sol",
  "compiler": {
    "name": "solc",
    "version": "0.5.8+commit.23d335f2.Emscripten.clang"
  },
  "schemaVersion": "3.0.11",
  "updatedAt": "2019-07-31T16:44:52.908Z",
  "devdoc": {
    "methods": {
      "createProject(string,string)": {
        "details": "Storing  project data in projects lookup.Storing  project ID in ownerToProjects lookup.",
        "params": {
          "_discription": "The disciption of the project. param _name The name of the project"
        },
        "return": "prjID The created project ID ."
      },
      "getMember()": {
        "details": "Retrieving  member data in enrolled and members lookups.",
        "return": "Data of msg.sender ."
      },
      "getMemeberCount()": {
        "return": "tempCount The counted members of the contracts ."
      },
      "retrievNoProject()": {
        "return": "_count No of the created projects of the sender ."
      },
      "storeMemebr(string,string,string)": {
        "details": "Storing  member data in enrolled and members .",
        "params": {
          "_firstNameMember": "First Name of the member.",
          "_lastNameMember": "Last name of the member ."
        },
        "return": "s The calculated surface."
      }
    },
    "title": "Crowd Member  "
  },
  "userdoc": {
    "methods": {
      "createProject(string,string)": {
        "notice": "This function called by  user interface to create a project  of specific member"
      },
      "getMember()": {
        "notice": "This function called by  user interface to get info of specific member"
      },
      "getMemeberCount()": {
        "notice": "This function called by  user interface to get info of specific member"
      },
      "retrievNoProject()": {
        "notice": "This function called by  user interface to count the no of the projects of a specific member."
      },
      "storeMemebr(string,string,string)": {
        "notice": "This function called by frontend to pass the parameters and register new memebr"
      }
    }
  }
}