{
  "contractName": "CrowdMember",
  "abi": [
    {
      "constant": true,
      "inputs": [],
      "name": "membersCount",
      "outputs": [
        {
          "name": "",
          "type": "uint256"
        }
      ],
      "payable": false,
      "stateMutability": "view",
      "type": "function"
    },
    {
      "inputs": [],
      "payable": false,
      "stateMutability": "nonpayable",
      "type": "constructor"
    },
    {
      "anonymous": false,
      "inputs": [
        {
          "indexed": true,
          "name": "accountAddress",
          "type": "address"
        }
      ],
      "name": "LogEnrolled",
      "type": "event"
    },
    {
      "constant": false,
      "inputs": [
        {
          "name": "_firstNameMember",
          "type": "string"
        },
        {
          "name": "_lastNameMember",
          "type": "string"
        },
        {
          "name": "_emailMember",
          "type": "string"
        }
      ],
      "name": "storeMemebr",
      "outputs": [
        {
          "name": "",
          "type": "bool"
        }
      ],
      "payable": false,
      "stateMutability": "nonpayable",
      "type": "function"
    },
    {
      "constant": true,
      "inputs": [],
      "name": "getMember",
      "outputs": [
        {
          "components": [
            {
              "name": "firstName",
              "type": "string"
            },
            {
              "name": "lastName",
              "type": "string"
            },
            {
              "name": "email",
              "type": "string"
            }
          ],
          "name": "",
          "type": "tuple"
        }
      ],
      "payable": false,
      "stateMutability": "view",
      "type": "function"
    },
    {
      "constant": true,
      "inputs": [],
      "name": "getMemeberCount",
      "outputs": [
        {
          "name": "tempCount",
          "type": "uint256"
        }
      ],
      "payable": false,
      "stateMutability": "view",
      "type": "function"
    },
    {
      "constant": false,
      "inputs": [
        {
          "name": "_discription",
          "type": "string"
        },
        {
          "name": "_name",
          "type": "string"
        }
      ],
      "name": "createProject",
      "outputs": [
        {
          "name": "prjID",
          "type": "uint256"
        }
      ],
      "payable": false,
      "stateMutability": "nonpayable",
      "type": "function"
    },
    {
      "constant": true,
      "inputs": [],
      "name": "retrievNoProject",
      "outputs": [
        {
          "name": "_count",
          "type": "uint256"
        }
      ],
      "payable": false,
      "stateMutability": "view",
      "type": "function"
    }
  ],
  "bytecode": "0x608060405234801561001057600080fd5b50600060058190555060006004819055506110df806100306000396000f3fe608060405234801561001057600080fd5b50600436106100625760003560e01c80630274c09414610067578063276a916a14610085578063297f9af0146100a35780634ef93bac146100c15780636aea6001146100df5780636bd062041461010f575b600080fd5b61006f61013f565b60405161007c9190610f38565b60405180910390f35b61008d61037b565b60405161009a9190610f5a565b60405180910390f35b6100ab610439565b6040516100b89190610f5a565b60405180910390f35b6100c961043f565b6040516100d69190610f5a565b60405180910390f35b6100f960048036036100f49190810190610dd1565b61044c565b6040516101069190610f1d565b60405180910390f35b61012960048036036101249190810190610d65565b610665565b6040516101369190610f5a565b60405180910390f35b610147610c12565b6000803373ffffffffffffffffffffffffffffffffffffffff1673ffffffffffffffffffffffffffffffffffffffff168152602001908152602001600020604051806060016040529081600082018054600181600116156101000203166002900480601f0160208091040260200160405190810160405280929190818152602001828054600181600116156101000203166002900480156102295780601f106101fe57610100808354040283529160200191610229565b820191906000526020600020905b81548152906001019060200180831161020c57829003601f168201915b50505050508152602001600182018054600181600116156101000203166002900480601f0160208091040260200160405190810160405280929190818152602001828054600181600116156101000203166002900480156102cb5780601f106102a0576101008083540402835291602001916102cb565b820191906000526020600020905b8154815290600101906020018083116102ae57829003601f168201915b50505050508152602001600282018054600181600116156101000203166002900480601f01602080910402602001604051908101604052809291908181526020018280546001816001161561010002031660029004801561036d5780601f106103425761010080835404028352916020019161036d565b820191906000526020600020905b81548152906001019060200180831161035057829003601f168201915b505050505081525050905090565b6000600160003373ffffffffffffffffffffffffffffffffffffffff1673ffffffffffffffffffffffffffffffffffffffff16815260200190815260200160002060009054906101000a900460ff1615610436576103d7610c33565b600360003373ffffffffffffffffffffffffffffffffffffffff1673ffffffffffffffffffffffffffffffffffffffff168152602001908152602001600020604051806020016040529081600082015481525050905080600001519150505b90565b60045481565b6000600454905080905090565b6000801515600160003373ffffffffffffffffffffffffffffffffffffffff1673ffffffffffffffffffffffffffffffffffffffff16815260200190815260200160002060009054906101000a900460ff161515141561060f576104ae610c12565b848160000181905250838160200181905250828160400181905250806000803373ffffffffffffffffffffffffffffffffffffffff1673ffffffffffffffffffffffffffffffffffffffff1681526020019081526020016000206000820151816000019080519060200190610524929190610c46565b506020820151816001019080519060200190610541929190610c46565b50604082015181600201908051906020019061055e929190610c46565b5090505060018060003373ffffffffffffffffffffffffffffffffffffffff1673ffffffffffffffffffffffffffffffffffffffff16815260200190815260200160002060006101000a81548160ff02191690831515021790555060016004600082825401925050819055503373ffffffffffffffffffffffffffffffffffffffff167f990c442e6adb818b8fa7db3cf1023decd07f7b66e5306928c7ed527d974192bb60405160405180910390a2505b600160003373ffffffffffffffffffffffffffffffffffffffff1673ffffffffffffffffffffffffffffffffffffffff16815260200190815260200160002060009054906101000a900460ff1690509392505050565b600060011515600160003373ffffffffffffffffffffffffffffffffffffffff1673ffffffffffffffffffffffffffffffffffffffff16815260200190815260200160002060009054906101000a900460ff1615151415610c0c576106c8610c12565b6000803373ffffffffffffffffffffffffffffffffffffffff1673ffffffffffffffffffffffffffffffffffffffff168152602001908152602001600020604051806060016040529081600082018054600181600116156101000203166002900480601f0160208091040260200160405190810160405280929190818152602001828054600181600116156101000203166002900480156107aa5780601f1061077f576101008083540402835291602001916107aa565b820191906000526020600020905b81548152906001019060200180831161078d57829003601f168201915b50505050508152602001600182018054600181600116156101000203166002900480601f01602080910402602001604051908101604052809291908181526020018280546001816001161561010002031660029004801561084c5780601f106108215761010080835404028352916020019161084c565b820191906000526020600020905b81548152906001019060200180831161082f57829003601f168201915b50505050508152602001600282018054600181600116156101000203166002900480601f0160208091040260200160405190810160405280929190818152602001828054600181600116156101000203166002900480156108ee5780601f106108c3576101008083540402835291602001916108ee565b820191906000526020600020905b8154815290600101906020018083116108d157829003601f168201915b5050505050815250509050610901610cc6565b838160200181905250848160000181905250600060405161092190610ce0565b604051809103906000f08015801561093d573d6000803e3d6000fd5b509050600560008154809291906001019190505550816002600060055481526020019081526020016000206000820151816000019080519060200190610984929190610c46565b5060208201518160010190805190602001906109a1929190610c46565b5090505060405180606001604052803373ffffffffffffffffffffffffffffffffffffffff168152602001848152602001600060038111156109df57fe5b81525060026000600554815260200190815260200160002060020160003373ffffffffffffffffffffffffffffffffffffffff1673ffffffffffffffffffffffffffffffffffffffff16815260200190815260200160002060008201518160000160006101000a81548173ffffffffffffffffffffffffffffffffffffffff021916908373ffffffffffffffffffffffffffffffffffffffff1602179055506020820151816001016000820151816000019080519060200190610aa3929190610c46565b506020820151816001019080519060200190610ac0929190610c46565b506040820151816002019080519060200190610add929190610c46565b50505060408201518160040160006101000a81548160ff02191690836003811115610b0457fe5b0217905550905050600360003373ffffffffffffffffffffffffffffffffffffffff1673ffffffffffffffffffffffffffffffffffffffff1681526020019081526020016000206000016000815480929190600101919050555060006001600360003373ffffffffffffffffffffffffffffffffffffffff1673ffffffffffffffffffffffffffffffffffffffff16815260200190815260200160002060000154019050600554600360003373ffffffffffffffffffffffffffffffffffffffff1673ffffffffffffffffffffffffffffffffffffffff1681526020019081526020016000206001016000838152602001908152602001600020819055506005549450505050505b92915050565b60405180606001604052806060815260200160608152602001606081525090565b6040518060200160405280600081525090565b828054600181600116156101000203166002900490600052602060002090601f016020900481019282601f10610c8757805160ff1916838001178555610cb5565b82800160010185558215610cb5579182015b82811115610cb4578251825591602001919060010190610c99565b5b509050610cc29190610cec565b5090565b604051806040016040528060608152602001606081525090565b60528061105483390190565b610d0e91905b80821115610d0a576000816000905550600101610cf2565b5090565b90565b600082601f830112610d2257600080fd5b8135610d35610d3082610fa2565b610f75565b91508082526020830160208301858383011115610d5157600080fd5b610d5c838284611000565b50505092915050565b60008060408385031215610d7857600080fd5b600083013567ffffffffffffffff811115610d9257600080fd5b610d9e85828601610d11565b925050602083013567ffffffffffffffff811115610dbb57600080fd5b610dc785828601610d11565b9150509250929050565b600080600060608486031215610de657600080fd5b600084013567ffffffffffffffff811115610e0057600080fd5b610e0c86828701610d11565b935050602084013567ffffffffffffffff811115610e2957600080fd5b610e3586828701610d11565b925050604084013567ffffffffffffffff811115610e5257600080fd5b610e5e86828701610d11565b9150509250925092565b610e7181610fea565b82525050565b6000610e8282610fce565b610e8c8185610fd9565b9350610e9c81856020860161100f565b610ea581611042565b840191505092915050565b60006060830160008301518482036000860152610ecd8282610e77565b91505060208301518482036020860152610ee78282610e77565b91505060408301518482036040860152610f018282610e77565b9150508091505092915050565b610f1781610ff6565b82525050565b6000602082019050610f326000830184610e68565b92915050565b60006020820190508181036000830152610f528184610eb0565b905092915050565b6000602082019050610f6f6000830184610f0e565b92915050565b6000604051905081810181811067ffffffffffffffff82111715610f9857600080fd5b8060405250919050565b600067ffffffffffffffff821115610fb957600080fd5b601f19601f8301169050602081019050919050565b600081519050919050565b600082825260208201905092915050565b60008115159050919050565b6000819050919050565b82818337600083830152505050565b60005b8381101561102d578082015181840152602081019050611012565b8381111561103c576000848401525b50505050565b6000601f19601f830116905091905056fe6080604052348015600f57600080fd5b50603580601d6000396000f3fe6080604052600080fdfea165627a7a723058206b861529bb18a279eae42914eb4c6303b7454809e76358822daa0bdf9c1d223a0029a265627a7a723058208ac8eb4919dd4f211f2bf36f2c9cee6f888f3458535862b9024c8ab8999a25426c6578706572696d656e74616cf50037",
  "source": "pragma solidity >=0.5.0 <0.6.0;\n/// @title A simulator for crowd sourcing and funding members and projects\n/// @author Fatin Alki\n/// @notice You can use this contract for only the most basic simulation\n/// @dev All function calls are currently implemented without side effects\npragma experimental ABIEncoderV2;\nimport \"./CrowdStructure.sol\";\nimport \"./Project.sol\";\n/** @title Crowd Member  */\n contract CrowdMember\n {\n\n\n\n\n\n\n//State variables\n\n// mapping address to CrowdMember\nmapping (address=>CrowdStructure.MemberData) private members;\nmapping (address=>bool) private enrolledMembers;\nmapping (uint=>CrowdStructure.Project)private projects ;\nmapping (address=>CrowdStructure.OwnerProjects) private ownerToProjects;\n//setting a counter of al members\nuint public membersCount ;\n//bytes32 public txID ;\nuint  indexProjects;\n\n\n////*events*///\nevent LogEnrolled(address indexed accountAddress);\n//Constructor used to intialize state variable\nconstructor() public\n  {\n    indexProjects=0;\n    membersCount=0;\n\n  }\n\n  /** @notice This function called by frontend to pass the parameters and register new memebr\n    * @dev Storing  member data in enrolled and members .\n    * @param _firstNameMember First Name of the member.\n    * @param _lastNameMember Last name of the member .\n    * @return s The calculated surface.\n    */\n\nfunction storeMemebr(string memory _firstNameMember,string memory _lastNameMember, string memory _emailMember) public returns(bool)\n{\n\nif(enrolledMembers[msg.sender]==false)\n{\n  CrowdStructure.MemberData memory _member;\n  _member.firstName=_firstNameMember;\n  _member.lastName= _lastNameMember;\n  //member.skills=_skillsMember ;\n  _member.email=_emailMember;\n  //member.phonNo= _phonNoMember;\n  //member.nationality=_nationalityMember;\n  members[msg.sender]=_member;\n  enrolledMembers[msg.sender]=true;\n  membersCount+=1;\n  emit LogEnrolled(msg.sender);\n}\nreturn enrolledMembers[msg.sender];\n\n//  txID=keccak256(abi.encodePacked(index2,msg.sender));\n\n}\n/** @notice This function called by  user interface to get info of specific member\n  * @dev Retrieving  member data in enrolled and members lookups.\n\n  * @return Data of msg.sender .\n  */\n\n\n function  getMember()  public view returns  (CrowdStructure.MemberData memory)\n {\n\n   return (members[msg.sender]);\n\n }\n /** @notice This function called by  user interface to get info of specific member\n   * @return tempCount The counted members of the contracts .\n   */\n\n function getMemeberCount() public view returns (uint tempCount)\n {\n    tempCount=membersCount;\n    return tempCount;\n }\n /** @notice This function called by  user interface to create a project  of specific member\n   * @dev Storing  project data in projects lookup.\n   * @dev Storing  project ID in ownerToProjects lookup.\n   * @param _discription The disciption of the project.\n   *@param _name The name of the project\n   * @return prjID The created project ID .\n   */\n\n\n function createProject(string memory _discription, string memory _name) public returns (uint prjID)\n {\n\n   if (enrolledMembers[msg.sender]==true)\n   {\n     CrowdStructure.MemberData memory _data= members[msg.sender];\n     CrowdStructure.Project memory _prj;\n     _prj.projectName=_name;\n     _prj.projectDiscrption=_discription;\n     CrowdProject prj= (new CrowdProject());\n     indexProjects++;\n     projects[indexProjects]=_prj;\n     projects[indexProjects].staff[msg.sender]= CrowdStructure.ProjectMember ({adr:msg.sender,data:_data,cont:CrowdStructure.Contribution.Owner}) ;\n     ownerToProjects[msg.sender].count ++;\n     uint index = ownerToProjects[msg.sender].count+1;\n     ownerToProjects[msg.sender].idToProject[index]=indexProjects;\n     prjID=indexProjects;\n\n     //txID=keccak256(abi.encodePacked(index2,msg.sender));\n }\n }\n\n /** @notice This function called by  user interface to count the no of the projects of a specific member.\n\n   * @return  _count No of the created projects of the sender .\n   */\n\n function retrievNoProject() public view returns (uint _count )\n {\n   //uint   _count =ownerToProjects[_address].count;\n\n   //address[] memory _lstProjects;\n   //for (uint i=1; i<=_count; i++) {\n   //_lstProjects[i]=ownerToProjects[_address].idToProject[i];\n //}\n     if (enrolledMembers[msg.sender])\n       {\n          CrowdStructure.OwnerProjects memory _temp =ownerToProjects[msg.sender];\n         _count= _temp.count;\n        }\n }\n\n}\n",
  "sourcePath": "/home/fatin/MyProjects/Solidity/CrowdFun/contracts/CrowdMember.sol",
  "compiler": {
    "name": "solc",
    "version": "0.5.8+commit.23d335f2.Emscripten.clang"
  },
  "schemaVersion": "3.0.11",
  "updatedAt": "2019-07-31T07:55:58.719Z",
  "devdoc": {
    "methods": {
      "createProject(string,string)": {
        "details": "Storing  project data in projects lookup.Storing  project ID in ownerToProjects lookup.",
        "params": {
          "_discription": "The disciption of the project. param _name The name of the project"
        },
        "return": "prjID The created project ID ."
      },
      "getMember()": {
        "details": "Retrieving  member data in enrolled and members lookups.",
        "return": "Data of msg.sender ."
      },
      "getMemeberCount()": {
        "return": "tempCount The counted members of the contracts ."
      },
      "retrievNoProject()": {
        "return": "_count No of the created projects of the sender ."
      },
      "storeMemebr(string,string,string)": {
        "details": "Storing  member data in enrolled and members .",
        "params": {
          "_firstNameMember": "First Name of the member.",
          "_lastNameMember": "Last name of the member ."
        },
        "return": "s The calculated surface."
      }
    },
    "title": "Crowd Member  "
  },
  "userdoc": {
    "methods": {
      "createProject(string,string)": {
        "notice": "This function called by  user interface to create a project  of specific member"
      },
      "getMember()": {
        "notice": "This function called by  user interface to get info of specific member"
      },
      "getMemeberCount()": {
        "notice": "This function called by  user interface to get info of specific member"
      },
      "retrievNoProject()": {
        "notice": "This function called by  user interface to count the no of the projects of a specific member."
      },
      "storeMemebr(string,string,string)": {
        "notice": "This function called by frontend to pass the parameters and register new memebr"
      }
    }
  }
}